:100000000C943A000C9457000C9457000C94570031
:100010000C9457000C9457000C9457000C94570004
:100020000C9457000C9457000C9457000C945700F4
:100030000C9457000C9457000C9457000C945700E4
:100040000C9457000C9457000C9457000C945700D4
:100050000C9457000C9457000C9457000C945700C4
:100060000C9457000C9457000C9457000C945700B4
:100070000C94570011241FBECFEFD4E0DEBFCDBFDC
:1000800011E0A0E0B1E0ECEDF0E002C005900D92CF
:10009000A030B107D9F711E0A0E0B1E001C01D9296
:1000A000A030B107E1F70E9459000C946C000C9449
:1000B000000080E18AB980E090E107C0EFE1FEE452
:1000C0003197F1F700C000008F5F8530BCF38BB132
:0C00D00089278BB980E0F2CFF894FFCFB5
:00000001FF
