:100000000C943A000C9457000C9457000C94570031
:100010000C9457000C9457000C9457000C94570004
:100020000C9457000C9457000C9457000C945700F4
:100030000C9457000C9457000C9457000C945700E4
:100040000C9457000C9457000C9457000C945700D4
:100050000C9457000C9457000C9457000C945700C4
:100060000C9457000C9457000C9457000C945700B4
:100070000C94570011241FBECFEFD4E0DEBFCDBFDC
:1000800011E0A0E0B1E0E6E6F1E002C005900D92DB
:10009000A030B107D9F711E0A0E0B1E001C01D9296
:1000A000A030B107E1F70E949F000C94B1000C94BE
:1000B00000006230710529F16330710520F4613070
:1000C000710559F515C06330710521F06430710573
:1000D00021F509C0FC01F07024A1892F292B24A34C
:1000E00095A180950CC0FC01F07084A1892B0FC0F4
:1000F000FC01F07084A19095892384A385A18923B4
:1001000009C0FC01F07084A1292F2095822384A3CB
:1001100085A1892B85A381E0089580E00895E1E61B
:10012000F0E080E880831082A89584B7877F84BF41
:10013000E0E6F0E08081886180831082089586E0A7
:1001400091E061E070E00E94590086E092E063E097
:1001500070E00E945900489B02C0599AFCCF599800
:06016000FACFF894FFCF76
:00000001FF
